:100000000C945A000C946F000C946F000C946F00C9
:100010000C946F000C946F000C946F000C946F00A4
:100020000C946F000C946F000C946F000C946F0094
:100030000C946F000C946F000C946F000C946F0084
:100040000C946F000C946F000C946F000C946F0074
:100050000C946F000C946F000C946F000C946F0064
:100060000C946F000C946F000C946F000C946F0054
:100070000C946F000C946F000C946F000C946F0044
:100080000C946F000C946F000C946F000C946F0034
:100090000C946F000C946F000C946F000C946F0024
:1000A0000C946F000C946F000C946F000C946F0014
:1000B0000C946F0011241FBECFEFD8E0DEBFCDBF80
:1000C00011E0A0E0B1E0EAE7F2E002C005900D9295
:1000D000AA36B107D9F70E94E3000C943B010C94B7
:1000E0000000CF93DF93CDB7DEB7C956D1090FB665
:1000F000F894DEBF0FBECDBF9B0142E3E0E0F1E02C
:10010000DE01119601900D924A95E1F742E3E2E398
:10011000F1E0DE01D39601900D924A95E1F745E0BA
:10012000E4E6F1E0DE01AB59BF4F01900D924A9534
:10013000E1F7A0E0B0E0A530B105D8F5E5E6F0E0E4
:10014000EC0FFD1FEA0FFB1F4081409545B9FC01F4
:10015000EE0FFF1FEE0FFF1FE80FF91F41E050E009
:100160004C0F5D1FE40FF51FEA0FFB1F5081F901D3
:10017000EE0FFF1FEE0FFF1FE20FF31F61E070E0B5
:100180006C0F7D1FE60FF71FEA0FFB1F42A9452BDF
:100190004BB940E050E0BA014C32E1E05E07610546
:1001A000710528F44F5F5F4F6F4F7F4FF5CF11966A
:1001B000C2CFC759DF4F0FB6F894DEBF0FBECDBF19
:1001C000DF91CF91089517B88FEF88B987E78AB983
:1001D0008FE184B9E1E8F0E0808183608083109250
:1001E000850010928400E12CF12C00E010E0C0E0CA
:1001F000D0E002C000E010E0309920C030990DC07E
:1002000080E090E0DC018C3221E09207A105B1058D
:10021000A8F70196A11DB11DF6CF81E0E816F10403
:1002200021F400E010E0C0E0D0E02FEFE21AF20A83
:1002300083E0E816F10411F4E12CF12CC12CD12C4F
:1002400024E6C216D10444F4B801CE010E94710024
:100250008FEFC81AD80AF4CFE114F10409F42196FB
:10026000CA30D10521F40F5F1F4FC0E0D0E00A3043
:0A027000110511F6BFCFF894FFCF7F
:10027A000705050507020602020707010704070723
:10028A000103010705050701010704070107070420
:10029A000705070701010101070507050707050704
:1002AA000101705050507020602020707010704012
:1002BA0070701030107050507010107040701070C4
:1002CA007040705070701010101070507050707034
:0A02DA00507010100102040810001B
:00000001FF
