S01700004763634170706C69636174696F6E312E737265635B
S11300000C945A000C946F000C946F000C946F00C5
S11300100C946F000C946F000C946F000C946F00A0
S11300200C946F000C946F000C946F000C946F0090
S11300300C946F000C946F000C946F000C946F0080
S11300400C946F000C946F000C946F000C946F0070
S11300500C946F000C9484020C946F000C946F0049
S11300600C946F000C946F000C946F000C946F0050
S11300700C946F000C946F000C946F000C946F0040
S11300800C946F000C946F000C946F000C946F0030
S11300900C946F000C946F000C946F000C946F0020
S11300A00C946F000C946F000C946F000C946F0010
S11300B00C946F0011241FBECFEFD8E0DEBFCDBF7C
S11300C011E0A0E0B1E0ECECF0E102C005900D928B
S11300D0A438B107D9F70E94F5070C9464080C946E
S11300E000009C01220F331F820F931F825A9E4FE0
S11300F090938900809388000895863021E09207C8
S113010010F486E091E0803921E0920710F08FE846
S113011091E08650914044EB489F9001499F300DF7
S113012011242C5B3F4FAFE2BFEE0E944108880FC1
S1130130892F881F990B91958A559109089585B146
S11301408F7D85B984EA8093BC008091BC008823AC
S1130150E4F78091B90088E78093BB0084E880933A
S1130160BC008091BC008823E4F78091B900089515
S11301708093BB0084E88093BC008091BC008823FA
S1130180E4F78091B900089584E98093BC00089550
S1130190CF93C82F0E949F0080E00E94B8008C2F4C
S11301A00E94B8000E94C400CF91089588EA0E947A
S11301B0C8008FE30E94C80083ED0E94C80080E05D
S11301C00E94C80080E40E94C80080E20E94C80027
S11301D080E00E94C80081EA0E94C80088EC0E9466
S11301E0C8008AED0E94C80082E10E94C80081E82C
S11301F00E94C8008FE90E94C80084EA0E94C800D7
S113020086EA0E94C80085ED0E94C80080E80E942A
S1130210C8008DE80E94C80084E10E94C8008FEAEB
S11302200E94C8000895CF93C82F0E949F0080E4C5
S11302300E94B8008C2F0E94B8000E94C400CF9185
S11302400895CF93DF93C0E0D0E0C11584E0D807D0
S11302502CF480E00E9413012196F7CFDF91CF9117
S11302600895CF93DF93D82FC62F81E20E94C80050
S11302708D2F0E94C8008C2F0E94C800DF91CF915F
S11302800895CF93DF93D82FC62F82E20E94C8002F
S11302908D2F0E94C8008C2F0E94C800DF91CF913F
S11302A008958F929F92BF92CF92DF92EF92FF9226
S11302B00F931F93CF93DF93EC01D62E8D599F4F4D
S11302C0873C910508F014C1DD23B4F56FEF8AE48F
S11302D00E943101FF24F394FD0C6F2D8D2D0E949B
S11302E0410100E010E00530110534F480EC0E9477
S11302F013010F5F1F4FF7CF80E00E9413016FEFD0
S11303008AE40E94310162E06D0D8F2D0E9441014B
S113031000E010E00530110534F480E00E94130180
S11303200F5F1F4FF7CF80E00E941301D195C19555
S1130330D10900E510E002C00AE410E0CE016AE051
S113034070E00E942D08E82EF92E6115710521F048
S1130350C82FD92F7B0102C0CAE0D0E0B02E6FEFC6
S1130360802F0E943101CC24C394CD0C6C2D8D2D93
S11303700E944101812C912C86E08816910494F40A
S1130380F701EE0FFF1FEE0DFF1DEE0FFF1FE80D2F
S1130390F91DEE5BFE4F80810E9413018FEF881AD6
S11303A0980AEACF80E00E9413016FEF8B2D0E9420
S11303B031016894BB24B1F8BD0C6B2D8C2D0E94C7
S11303C04101812C912C86E08816910494F4F70164
S11303D0EE0FFF1FEE0DFF1DEE0FFF1FE80DF91DC1
S11303E0E050FF4F80810E9413018FEF881A980A12
S11303F0EACF80E00E94130180E00E94130178019B
S113040087E0E80EF11C6FEF8E2D0E9431016C2DF8
S11304108D2D0E944101812C912C86E08816910437
S113042094F4FE01EE0FFF1FEC0FFD1FEE0FFF1FF4
S1130430E80DF91DEE5BFE4F80810E9413018FEFE2
S1130440881A980AEACF80E00E9413016FEF8E2D7C
S11304500E9431016B2D8C2D0E944101E12CF12C65
S113046086E0E816F10494F4FE01EE0FFF1FEC0F92
S1130470FD1FEE0FFF1FEE0DFF1DE050FF4F8081AB
S11304800E9413018FEFE81AF80AEACF80E00E9475
S1130490130180E00E941301025F1F4F6FEF802F52
S11304A00E9431016C2D8D2D0E944101C0E0D0E0ED
S11304B0C630D1052CF480E00E9413012196F8CFB8
S11304C080E00E9413016FEF802F0E9431016B2D99
S11304D08C2D0E944101C0E0D0E0C630D1052CF43F
S11304E080E00E9413012196F8CF80E00E9413015E
S11304F0DF91CF911F910F91FF90EF90DF90CF90FC
S1130500BF909F908F9008951F920F920FB60F92F5
S113051011242F933F934F935F936F937F938F9304
S11305209F93AF93BF93CF93DF93EF93FF939091F8
S113053078002091790030E0220F331F220F331FFF
S1130540892F90E0082E892F000C881F990B000C2E
S1130550881F991F822B932B20917C002F7019F0F8
S1130560213091F01CC00E947D00EC010E947100BA
S113057060E070E0CE010E945101ECE7F0E0808180
S1130580807F816080830BC00E947D0062E070E008
S11305900E945101ECE7F0E08081807F8083EAE7EC
S11305A0F0E0808180648083FF91EF91DF91CF91AF
S11305B0BF91AF919F918F917F916F915F914F9177
S11305C03F912F910F900FBE0F901F9018950F938E
S11305D01F93CF93DF93CDB7DEB7C452D1400FB68C
S11305E0F894DEBF0FBECDBFC452DF4F1882CC5D7E
S11305F0D04082E0C352DF4F8883CD5DD040C252E9
S1130600DF4F8883CE5DD04096E0C152DF4F9883A0
S1130610CF5DD0403EE0C052DF4F3883C05ED04053
S11306202EE1CF51DF4F2883C15ED04022E7CE5167
S1130630DF4F2883C25ED04022EECD51DF4F2883A6
S1130640C35ED04020ECCC51DF4F2883C45ED04041
S113065040E4CB51DF4F4883C55ED04042E2CA51EB
S1130660DF4F4883C65ED0404AE1C951DF4F48831B
S1130670C75ED040C851DF4F3883C85ED040C751F1
S1130680DF4F9883C95ED040C651DF4F8883CA5E6E
S1130690D040C551DF4F8883CB5ED040C451DF4F7B
S11306A01882CC5ED040C351DF4F1882CD5ED0405B
S11306B0C251DF4F1882CE5ED040C151DF4F188245
S11306C0CF5ED040C051DF4F1882C05FD040CF50C2
S11306D0DF4F1882C15FD04080E2CE50DF4F888365
S11306E0C25FD04030E6CD50DF4F3883C35FD04087
S11306F090EECC50DF4F9883C45FD04040EACB509B
S1130700DF4F4883C55FD040CA50DF4F8883C65F40
S1130710D040C950DF4F1882C75FD040C850DF4F68
S11307201882C85FD040C750DF4F8883C95FD0406C
S1130730C650DF4F9883CA5FD040C550DF4F8883CF
S1130740CB5FD040C450DF4F1882CC5FD040C35041
S1130750DF4F2883CD5FD040C250DF4F9883CE5FF8
S1130760D040C150DF4F8883CF5FD040C050DF4FAF
S11307708883C050D140CF5FDE4F8883C150D140C1
S1130780CE5FDE4F9883C250D140CD5FDE4F2883C9
S1130790C350D140CC5FDE4F1882C450D140CB5FF0
S11307A0DE4F1882C550D14044E0CA5FDE4F488313
S11307B0C650D1404EEFC95FDE4F4883C750D14089
S11307C0C85FDE4F4883C850D140C75FDE4F1882F0
S11307D0C950D140C65FDE4F1882CA50D140C55FB0
S11307E0DE4F9883CB50D140C45FDE4F9883CC500A
S11307F0D140C35FDE4F1882CD50D140C25FDE4F7F
S11308001882CE50D140C15FDE4F1882CF50D14004
S1130810C05FDE4F1882C051D140CF5EDE4F988357
S1130820C151D140CE5EDE4F9883C251D140CD5EDE
S1130830DE4F1882C351D140CC5EDE4F1882C451C2
S1130840D14090E8CB5EDE4F9883C551D140CA5E5B
S1130850DE4F2883C651D140C95EDE4F3883C7516D
S1130860D140C85EDE4F8883C851D140C75EDE4F99
S11308708883C951D140C65EDE4F3883CA51D14006
S1130880C55EDE4F2883CB51D140C45EDE4F9883D2
S1130890CC51D140C35EDE4F1882CD51D140C25EEF
S11308A0DE4F1882CE51D14080E3C15EDE4F888393
S11308B0CF51D140C05EDE4F8883C052D140CF5D5E
S11308C0DE4F1882C152D140CE5DDE4F1882C25233
S11308D0D140FE01ED5DFE4F81E090E08F3F2FEFB0
S11308E0920719F011920197F9CFCD56DF4F188274
S11308F0C359D04080E4CC56DF4F8883C459D040DC
S1130900CB56DF4F8883C559D04090E6CA56DF4F97
S11309109883C659D04030E7C956DF4F3883C7594A
S1130920D04028E5C856DF4F2883C859D0402CE072
S1130930C756DF4F2883C959D04022E0C656DF4F3F
S11309402883CA59D04023E0C556DF4F2883CB59AA
S1130950D04047E0C456DF4F4883CC59D0405EE4D2
S1130960C356DF4F5883CD59D04058E7C256DF4FA6
S11309705883CE59D040C156DF4F3883CF59D04029
S1130980C056DF4F9883C05AD040CF55DF4F88837D
S1130990C15AD040CE55DF4F8883C25AD040CD557E
S11309A0DF4F1882C35AD040CC55DF4F1882C45A47
S11309B0D040CB55DF4F1882C55AD040CA55DF4FBF
S11309C01882C65AD040C955DF4F1882C75AD04042
S11309D0C855DF4F1882C85AD040C755DF4F188218
S11309E0C95AD040C655DF4F1882CA5AD040C5559F
S11309F0DF4F2883CB5AD0405FE1C455DF4F588383
S1130A00CC5AD0403CE7C355DF4F3883CD5AD04051
S1130A10C255DF4F9883CE5AD04098E1C155DF4F7D
S1130A209883CF5AD040C055DF4F4883C05BD04035
S1130A30CF54DF4F1882C15BD040CE54DF4F1882B1
S1130A40C25BD040CD54DF4F1882C35BD04098E3E3
S1130A50CC54DF4F9883C45BD040CB54DF4F3883F2
S1130A60C55BD04096E4CA54DF4F9883C65BD04040
S1130A7092E4C954DF4F9883C75BD04031E2C85435
S1130A80DF4F3883C85BD0409FE7C754DF4F98835C
S1130A90C95BD040C654DF4F9883CA5BD040C5546D
S1130AA0DF4F8883CB5BD040C454DF4F1882CC5BCC
S1130AB0D040C354DF4F8883CD5BD040C254DF4F56
S1130AC09883CE5BD040C154DF4F9883CF5BD04036
S1130AD0C054DF4F8883C05CD040CF53DF4F1882AF
S1130AE0C15CD0404FE3CE53DF4F4883C25CD0405B
S1130AF0CD53DF4F9883C35CD040CC53DF4F888302
S1130B00C45CD040CB53DF4F8883C55CD040CA530C
S1130B10DF4F8883C65CD04080E2C953DF4F8883AF
S1130B20C75CD040C853DF4F9883C85CD040C753DC
S1130B30DF4F9883C95CD040C653DF4F8883CA5CBB
S1130B40D040C553DF4F1882CB5CD040C453DF4F35
S1130B505883CC5CD040C353DF4F4883CD5CD04036
S1130B6081E7C253DF4F8883CE5CD04081E6C15316
S1130B70DF4F8883CF5CD040C053DF4F8883C05D94
S1130B80D040CF52DF4F8883C15DD040CE52DF4F7B
S1130B903883C25DD04081E1CD52DF4F8883C35D8D
S1130BA0D040CC52DF4F1882C45DD040CB52DF4FCF
S1130BB01882C55DD040CA52DF4F2883C65DD0403D
S1130BC0C952DF4F2883C75DD040C852DF4F188217
S1130BD0C85DD040C752DF4F1882C95DD040FE01C6
S1130BE0E652FF4F81E090E08F3F2FEF920719F01C
S1130BF011920197F9CF2B961FAE2B9782E02C967A
S1130C008FAF2C972D968FAF2D9796E02E969FAF92
S1130C102E972EE02F962FAF2F972EE160962FAFB1
S1130C20609722E761962FAF619722EE62962FAF0D
S1130C30629730E863963FAF639764961FAE6497FC
S1130C4020EC65962FAF659742E266964FAF6697A4
S1130C504AE167964FAF679768969FAF6897699622
S1130C608FAF69976A968FAF6A976B961FAE6B9733
S1130C706C961FAE6C976D961FAE6D976E961FAEF9
S1130C806E976F961FAE6F97A0961FAEA09780E2E7
S1130C90A1968FAFA19740E6A2964FAFA29790EE90
S1130CA0A3969FAFA39750EAA4965FAFA497A59687
S1130CB08FAFA597A6961FAEA697A7961FAEA79728
S1130CC0A8968FAFA897A9969FAFA997AA968FAF1A
S1130CD0AA97AB961FAEAB97AC962FAFAC97AD96D9
S1130CE09FAFAD97AE968FAFAE97AF968FAFAF97DE
S1130CF0E0968FAFE097E1969FAFE197E2962FAF32
S1130D00E297E3961FAEE397E4961FAEE49754E0B0
S1130D10E5965FAFE5975EEFE6965FAFE697E796F9
S1130D205FAFE797E8961FAEE897E9961FAEE9979D
S1130D30EA969FAFEA97EB969FAFEB97EC961FAEC0
S1130D40EC97ED961FAEED97EE961FAEEE97EF96ED
S1130D501FAEEF97C158DF4F9883CF57D040C0588C
S1130D60DF4F9883C058D040CF57DF4F1882C15807
S1130D70D040CE57DF4F1882C258D040CD57DF4FF6
S1130D803883C358D040CC57DF4F2883C458D04051
S1130D90CB57DF4F4883C558D040CA57DF4F8883AD
S1130DA0C658D040C957DF4F8883C758D040C8576A
S1130DB0DF4F4883C858D040C757DF4F2883C958EE
S1130DC0D040C657DF4F3883CA58D040C557DF4F8D
S1130DD01882CB58D040C457DF4F1882CC58D0402B
S1130DE080E3C357DF4F8883CD58D040C257DF4FCD
S1130DF08883CE58D040C157DF4F1882CF58D04097
S1130E00C057DF4F1882C059D040FE01EF56FF4F44
S1130E1081E090E08F3F2FEF920719F01192019734
S1130E20F9CF19821A821B821C821D821E8280E4E1
S1130E308F8388879FE799879A878B878C871D86FE
S1130E401E861F86188A198A1A8A1B8A1C8A1D8A7A
S1130E501E8A1F8A188E23E0298F5FE15A8F3CE790
S1130E603B8F40E64C8F48E14D8F47E04E8F1F8EFD
S1130E7018A219A248E34AA33BA336E43CA332E4F4
S1130E803DA331E23EA39FA398A789A71AA68BA7E7
S1130E909CA79DA78EA71FA64FE348AB99AB8AAB2F
S1130EA08BAB8CAB80E28DAB9EAB9FAB88AF19AEA6
S1130EB05AAF4BAF81E78CAF81E68DAF8EAF8FAF6A
S1130EC021963FAF219781E122968FAF22972396F7
S1130ED01FAE239724961FAE249725962FAF2597F0
S1130EE026962FAF269727961FAE279728961FAED4
S1130EF02897FE01E85BFF4F81E090E08F3F2FEFE2
S1130F00920719F011920197F9CF6FEF80E00E94D8
S1130F10310161E080E00E94410100E010E0093409
S1130F20110564F4ECEDF0E0EC0FFD1FE00FF11F90
S1130F3080810E9413010F5F1F4FF1CF6FEF80E09C
S1130F400E94310162E081E00E94410100E010E072
S1130F500934110564F4E3E9F0E0EC0FFD1FE00F40
S1130F60F11F80810E9413010F5F1F4FF1CF6FEFBC
S1130F7080E00E94310163E082E00E94410100E0D0
S1130F8010E00934110564F4EAE4F0E0EC0FFD1F0D
S1130F90E00FF11F80810E9413010F5F1F4FF1CFFB
S1130FA06FEF80E00E94310164E083E00E94410120
S1130FB000E010E00934110564F4E1E0F0E0EC0F26
S1130FC0FD1FE00FF11F80810E9413010F5F1F4F6F
S1130FD0F1CFCC5DDE4F0FB6F894DEBF0FBECDBFB0
S1130FE0DF91CF911F910F91089584B1806284B9EC
S1130FF080E18093B800E9EBF0E080818260808337
S11310000E94D6000E9421010E94E702EAE7F0E074
S1131010808187608083ACE7B0E08C9180628C93A0
S11310208081886080838081806880838C918064E3
S11310308C93789480818064808384B1826084B945
S113104082E8809380008BE18093810088E893E1BB
S11310509093870080938600FFCF97FB072E16F4AA
S1131060009407D077FD09D00E94500807FC05D0F2
S11310703EF4909581959F4F0895709561957F4FAB
S11310800895A29FB001B39FC001A39F700D811D5D
S11310901124911DB29F700D811D1124911D08957D
S11310A0AA1BBB1B51E107C0AA1FBB1FA617B7078A
S11310B010F0A61BB70B881F991F5A95A9F78095A6
S10F10C09095BC01CD010895F894FFCF79
S11310CC3F7F60607F3F60607F7F60606070786CA2
S11310DC6663606060607F3F000000007F7F30606B
S11310EC60607F3F3F7F61617F3F0000787F070036
S11310FC3F7F61617F37307161617F3F0000000089
S113110C0000FCFE0606FEFC0008FCFE00003C068B
S113111C060606FC06868686FE7CFEFE8080FEFEA7
S113112CFEFEC6C68606FCFE86868E0C06060606E3
S113113CFEFE7CFE8686FE7CFCFE8686FEFC0000A3
S107114C000000009B
S9030000FC
