S01700004763634170706C69636174696F6E312E737265635B
S11300000C945A000C9464000C9464000C946400E6
S11300100C9464000C9464000C9464000C946400CC
S11300200C9464000C9464000C9464000C946400BC
S11300300C9464000C9464000C9464000C946400AC
S11300400C9464000C9464000C9464000C9464009C
S11300500C9464000C9464000C9464000C9464008C
S11300600C9464000C9464000C9464000C9464007C
S11300700C9464000C9464000C9464000C9464006C
S11300800C9464000C9464000C9464000C9464005C
S11300900C9464000C9464000C9464000C9464004C
S11300A00C9464000C9464000C9464000C9464003C
S11300B00C94640011241FBECFEFD8E0DEBFCDBF87
S11300C00E9418010C94DA010C94000085B18F7D14
S11300D085B984EA8093BC008091BC008823E4F74E
S11300E08091B90088E78093BB0084E88093BC00CA
S11300F08091BC008823E4F78091B900089580932F
S1130100BB0084E88093BC008091BC008823E4F7A2
S11301108091B900089584E98093BC000895CF9339
S1130120C82F0E94660080E00E947F008C2F0E94EE
S11301307F000E948B00CF91089588EA0E948F006F
S11301408FE30E948F0083ED0E948F0080E00E9465
S11301508F0080E40E948F0080E20E948F0080E084
S11301600E948F0081EA0E948F0088EC0E948F0019
S11301708AED0E948F0082E10E948F0081E80E9434
S11301808F008FE90E948F0084EA0E948F0086EA24
S11301900E948F0085ED0E948F0080E80E948F00EE
S11301A08DE80E948F0084E10E948F008FEA0E94F4
S11301B08F000895CF93C82F0E94660080E40E94A8
S11301C07F008C2F0E947F000E948B00CF910895A6
S11301D0CF93DF93C0E0D0E0C11584E0D8072CF4BE
S11301E080E00E94DA002196F7CFDF91CF91089545
S11301F0CF93DF93D82FC62F81E20E948F008D2FDB
S11302000E948F008C2F0E948F00DF91CF91089560
S1130210CF93DF93D82FC62F82E20E948F008D2FB9
S11302200E948F008C2F0E948F00DF91CF91089540
S1130230CF93DF93CDB7DEB7CA54D1090FB6F89484
S1130240DEBF0FBECDBF84B1806284B980E18093EC
S1130250B800E9EBF0E08081826080830E949D0019
S11302600E94E800FE0131968AE4DF011D928A951E
S1130270E9F782E08A838B838EEF8C838D8382E817
S11302808E838F83888789878A8786EC8B878CE720
S11302908C8788E38D8780E8888B20EC298B30E677
S11302A03A8B90E29B8B9C8B3D8B2E8B8F8B80E4C7
S11302B0898F30EE3A8F3B8F8C8F8D8F9E8F9F8FDF
S11302C038A329A38EA38FA39FE798A799A78AA7EA
S11302D08BA78CA78DA78EA721E42FA723E628AB95
S11302E02FE329AB3EE13AAB3FE13CAB2DAB21E739
S11302F02EAB21E62FAB28AF29AF21E22AAF21E1B3
S11303002BAF8DAF9EAF9FAF21968FAF21972496D1
S11303108FAF249725969FAF259726969FAF269754
S113032027968FAF279761E58EE20E94F80064E07C
S113033083E00E94080100E010E00A34110564F42F
S1130340E1E0F0E0EC0FFD1FE00FF11F80810E945F
S1130350DA000F5F1F4FF1CF0E94E800BFEF29E6DC
S113036088E1B15020408040E1F700C0000061E521
S11303708EE20E94F80064E083E00E94080100E03D
S113038010E00A34110564F4E1E0F0E0EC0FFD1F25
S1130390E00FF11F80810E94DA000F5F1F4FF1CF41
S11303A09FEFA9E6B8E19150A040B040E1F700C04A
S10B03B00000D2CFF894FFCF46
S9030000FC
