:100000000C945A000C9464000C9464000C946400EA
:100010000C9464000C9464000C9464000C946400D0
:100020000C9464000C9464000C9464000C946400C0
:100030000C9464000C9464000C9464000C946400B0
:100040000C9464000C9464000C9464000C946400A0
:100050000C9464000C9464000C9464000C94640090
:100060000C9464000C9464000C9464000C94640080
:100070000C9464000C9464000C9464000C94640070
:100080000C9464000C9464000C9464000C94640060
:100090000C9464000C9464000C9464000C94640050
:1000A0000C9464000C9464000C9464000C94640040
:1000B0000C94640011241FBECFEFD8E0DEBFCDBF8B
:1000C0000E9466000C94C1000C940000E0E8F0E08F
:1000D000808183688083E1E8F0E080818C618083A7
:1000E00082EE94E0909385008093840084B18260D6
:1000F00084B920E030E019C04EE3429FC001439F25
:10010000900D112464EB70E00E94990070938900B7
:10011000609388004FE786E89DE041508040904022
:10012000E1F700C000002F5F3F4F243B310524F36F
:10013000E0CF97FB072E16F4009407D077FD09D087
:100140000E94AD0007FC05D03EF4909581959F4F2D
:100150000895709561957F4F0895AA1BBB1B51E1CF
:1001600007C0AA1FBB1FA617B70710F0A61BB70B27
:10017000881F991F5A95A9F780959095BC01CD01CC
:060180000895F894FFCF82
:00000001FF
