S01700004763634170706C69636174696F6E312E737265635B
S11300000C9469000C947B000C947B000C947B0092
S11300100C947B000C947B000C947B000C947B0070
S11300200C947B000C947B000C947D000C947B005E
S11300300C947B000C947B000C947B000C947B0050
S11300400C947B000C947B000C947B000C947B0040
S11300500C947B000C947B000C947B000C947B0030
S11300600C947B000C947B000C947B000C947B0020
S11300700C947B000C947B000C947B000C947B0010
S11300800C947B000C947B000C947B000C947B0000
S11300900C947B000C947B000C947B000C947B00F0
S11300A00C947B000C947B000C947B000C947B00E0
S11300B00C947B0005A84CCDB2D44EB93836A902B5
S11300C00C50B9918688083CA6AAAA2ABE00000052
S11300D0803F11241FBECFEFD8E0DEBFCDBF21E0AB
S11300E0A0E0B1E001C01D92AA3CB207E1F70E9472
S11300F0EA000C9441030C9400001F920F920FB677
S11301000F9211242F933F938F939F93EF93FF9319
S113011080910001909101019C012F5F3F4F30932A
S1130120010120930001880F991FFC01EE5FFE4F2F
S1130130808191819093890080938800809100014F
S1130140909101018436910524F0109201011092DE
S11301500001FF91EF919F918F913F912F910F900B
S11301600FBE0F901F901895CF93DF93C0E0D0E09F
S1130170C436D10564F5BE010D2E000C880B990B15
S11301800E94B8012DEF3DEA40E85DE30E9444027D
S11301900E94B1022DEC3CEC4CEC5EE30E94440264
S11301A020E030E040E05FE30E941B0120E030EB00
S11301B046E255E40E9444020E948701FE01EE0FCC
S11301C0FF1FEE5FFE4F718360832196D1CFDF91D5
S11301D0CF9108950E94B400789484B1826084B968
S11301E0E0E8F0E0808182688083E1E8F0E08081EB
S11301F08961808380E280936F008BE69AE090931C
S113020087008093860080910001909101019C01F8
S11302102F5F3F4F3093010120930001880F991FF6
S1130220FC01EE5FFE4F8081918190938900809361
S11302308800FFCF5058BB27AA270E9432010C9494
S11302400A020E94FC0138F00E94030220F039F4F3
S11302509F3F19F426F40C94F9010EF4E095E7FBA2
S11302600C94F301E92F0E941B0258F3BA1762079A
S113027073078407950720F079F4A6F50C943D02E2
S11302800EF4E0950B2EBA2FA02D0B01B9019001AD
S11302900C01CA01A0011124FF27591B99F0593FF1
S11302A050F4503E68F11A16F040A22F232F342F39
S11302B04427585FF3CF469537952795A795F04087
S11302C05395C9F77EF41F16BA0B620B730B840B9C
S11302D0BAF09150A1F0FF0FBB1F661F771F881F54
S11302E0C2F70EC0BA0F621F731F841F48F48795AC
S11302F077956795B795F7959E3F08F0B0CF93959E
S1130300880F08F09927EE0F9795879508950E9416
S1130310230288F09F5798F0B92F9927B751B0F06E
S1130320E1F0660F771F881F991F1AF0BA95C9F775
S113033014C0B13091F00E943D02B1E008950C94D4
S11303403D02672F782F8827B85F39F0B93FCCF387
S1130350869577956795B395D9F73EF490958095F2
S1130360709561957F4F8F4F9F4F0895E89409C012
S113037097FB3EF490958095709561957F4F8F4FD4
S11303809F4F9923A9F0F92F96E9BB279395F695EA
S1130390879577956795B795F111F8CFFAF4BB0F68
S11303A011F460FF1BC06F5F7F4F8F4F9F4F16C0CC
S11303B0882311F096E911C0772321F09EE8872F56
S11303C0762F05C0662371F096E8862F70E060E012
S11303D02AF09A95660F771F881FDAF7880F96958B
S11303E0879597F9089597F99F6780E870E060E032
S11303F008959FEF80EC089500240A9416161706BA
S113040018060906089500240A9412161306140601
S113041005060895092E0394000C11F4882352F064
S1130420BB0F40F4BF2B11F460FF04C06F5F7F4F1C
S11304308F4F9F4F089557FD9058440F551F59F003
S11304405F3F71F04795880F97FB991F61F09F3FBD
S113045079F087950895121613061406551FF2CFE6
S11304604695F1DF08C0161617061806991FF1CF36
S113047086957105610508940895E894BB2766275D
S11304807727CB0197F908950E9457020C940A022A
S11304900E94FC0138F00E94030220F0952311F021
S11304A00C94F3010C94F90111240C943E020E9463
S11304B01B0270F3959FC1F3950F50E0551F629F87
S11304C0F001729FBB27F00DB11D639FAA27F00DA9
S11304D0B11DAA1F649F6627B00DA11D661F829FD0
S11304E02227B00DA11D621F739FB00DA11D621FB5
S11304F0839FA00D611D221F749F3327A00D611DD2
S1130500231F849F600D211D822F762F6A2F1124B3
S11305109F5750409AF0F1F088234AF0EE0FFF1FE6
S1130520BB1F661F771F881F91505040A9F79E3F3D
S1130530510580F00C94F3010C943E025F3FE4F308
S1130540983ED4F3869577956795B795F795E79593
S11305509F5FC1F7FE2B880F911D9695879597F99C
S113056008959F930E94BB020F9007FCEE5F0C94CA
S1130570E4020C94F9010E942302D8F3E894E0E029
S1130580BB279F57F0F02AED3FE049EC06C0EE0F81
S1130590BB0F661F771F881F28F0B23A62077307E4
S11305A0840728F0B25A620B730B840BE3959A9577
S11305B072F7803830F49A95BB0F661F771F881F37
S11305C0D2F790480C94FA02EF93E0FF07C0A2EA36
S11305D02AED3FE049EC5FEB0E9432010E940A02DF
S11305E00F90039401FC9058E4EBF0E00C940603A4
S11305F09F3F31F0915020F4879577956795B79593
S1130600880F911D9695879597F908959F938F93D9
S11306107F936F93FF93EF939B01AC010E9444027D
S1130620EF91FF910E941A032F913F914F915F9197
S11306300C944402DF93CF931F930F93FF92EF9296
S1130640DF927B018C01689406C0DA2EEF010E94D0
S11306505702FE01E894A591259135914591559154
S1130660A6F3EF010E943201FE019701A801DA947A
S113067069F7DF90EF90FF900F911F91CF91DF9179
S10906800895F894FFCF79
S9030000FC
